{
  "contractName": "BEP20",
  "abi": [
    {
      "inputs": [
        {
          "internalType": "address",
          "name": "associatesAdd",
          "type": "address"
        },
        {
          "internalType": "address",
          "name": "teamAdd",
          "type": "address"
        },
        {
          "internalType": "address",
          "name": "seedAdd",
          "type": "address"
        },
        {
          "internalType": "address",
          "name": "privSaleAdd",
          "type": "address"
        },
        {
          "internalType": "address",
          "name": "marketingAdd",
          "type": "address"
        },
        {
          "internalType": "address",
          "name": "icoRound1Add",
          "type": "address"
        },
        {
          "internalType": "address",
          "name": "icoRound2Add",
          "type": "address"
        }
      ],
      "stateMutability": "nonpayable",
      "type": "constructor"
    },
    {
      "anonymous": false,
      "inputs": [
        {
          "indexed": true,
          "internalType": "address",
          "name": "owner",
          "type": "address"
        },
        {
          "indexed": true,
          "internalType": "address",
          "name": "spender",
          "type": "address"
        },
        {
          "indexed": false,
          "internalType": "uint256",
          "name": "value",
          "type": "uint256"
        }
      ],
      "name": "Approval",
      "type": "event"
    },
    {
      "anonymous": false,
      "inputs": [
        {
          "indexed": true,
          "internalType": "address",
          "name": "previousOwner",
          "type": "address"
        },
        {
          "indexed": true,
          "internalType": "address",
          "name": "newOwner",
          "type": "address"
        }
      ],
      "name": "OwnershipTransferred",
      "type": "event"
    },
    {
      "anonymous": false,
      "inputs": [
        {
          "indexed": true,
          "internalType": "address",
          "name": "from",
          "type": "address"
        },
        {
          "indexed": true,
          "internalType": "address",
          "name": "to",
          "type": "address"
        },
        {
          "indexed": false,
          "internalType": "uint256",
          "name": "value",
          "type": "uint256"
        }
      ],
      "name": "Transfer",
      "type": "event"
    },
    {
      "inputs": [],
      "name": "owner",
      "outputs": [
        {
          "internalType": "address",
          "name": "",
          "type": "address"
        }
      ],
      "stateMutability": "view",
      "type": "function"
    },
    {
      "inputs": [],
      "name": "renounceOwnership",
      "outputs": [],
      "stateMutability": "nonpayable",
      "type": "function"
    },
    {
      "inputs": [
        {
          "internalType": "address",
          "name": "newOwner",
          "type": "address"
        }
      ],
      "name": "transferOwnership",
      "outputs": [],
      "stateMutability": "nonpayable",
      "type": "function"
    },
    {
      "inputs": [],
      "name": "getOwner",
      "outputs": [
        {
          "internalType": "address",
          "name": "",
          "type": "address"
        }
      ],
      "stateMutability": "view",
      "type": "function"
    },
    {
      "inputs": [],
      "name": "getTeamAdd",
      "outputs": [
        {
          "internalType": "address",
          "name": "",
          "type": "address"
        }
      ],
      "stateMutability": "view",
      "type": "function"
    },
    {
      "inputs": [],
      "name": "getSeedAdd",
      "outputs": [
        {
          "internalType": "address",
          "name": "",
          "type": "address"
        }
      ],
      "stateMutability": "view",
      "type": "function"
    },
    {
      "inputs": [],
      "name": "getAssociatesAdd",
      "outputs": [
        {
          "internalType": "address",
          "name": "",
          "type": "address"
        }
      ],
      "stateMutability": "view",
      "type": "function"
    },
    {
      "inputs": [],
      "name": "decimals",
      "outputs": [
        {
          "internalType": "uint8",
          "name": "",
          "type": "uint8"
        }
      ],
      "stateMutability": "view",
      "type": "function"
    },
    {
      "inputs": [],
      "name": "symbol",
      "outputs": [
        {
          "internalType": "string",
          "name": "",
          "type": "string"
        }
      ],
      "stateMutability": "view",
      "type": "function"
    },
    {
      "inputs": [],
      "name": "name",
      "outputs": [
        {
          "internalType": "string",
          "name": "",
          "type": "string"
        }
      ],
      "stateMutability": "view",
      "type": "function"
    },
    {
      "inputs": [],
      "name": "totalSupply",
      "outputs": [
        {
          "internalType": "uint256",
          "name": "",
          "type": "uint256"
        }
      ],
      "stateMutability": "view",
      "type": "function"
    },
    {
      "inputs": [
        {
          "internalType": "address",
          "name": "account",
          "type": "address"
        }
      ],
      "name": "balanceOf",
      "outputs": [
        {
          "internalType": "uint256",
          "name": "",
          "type": "uint256"
        }
      ],
      "stateMutability": "view",
      "type": "function"
    },
    {
      "inputs": [],
      "name": "maxSupply",
      "outputs": [
        {
          "internalType": "uint256",
          "name": "",
          "type": "uint256"
        }
      ],
      "stateMutability": "view",
      "type": "function"
    },
    {
      "inputs": [],
      "name": "startTime",
      "outputs": [
        {
          "internalType": "uint256",
          "name": "",
          "type": "uint256"
        }
      ],
      "stateMutability": "view",
      "type": "function"
    },
    {
      "inputs": [
        {
          "internalType": "address",
          "name": "recipient",
          "type": "address"
        },
        {
          "internalType": "uint256",
          "name": "amount",
          "type": "uint256"
        }
      ],
      "name": "transfer",
      "outputs": [
        {
          "internalType": "bool",
          "name": "",
          "type": "bool"
        }
      ],
      "stateMutability": "nonpayable",
      "type": "function"
    },
    {
      "inputs": [
        {
          "internalType": "address",
          "name": "owner",
          "type": "address"
        },
        {
          "internalType": "address",
          "name": "spender",
          "type": "address"
        }
      ],
      "name": "allowance",
      "outputs": [
        {
          "internalType": "uint256",
          "name": "",
          "type": "uint256"
        }
      ],
      "stateMutability": "view",
      "type": "function"
    },
    {
      "inputs": [
        {
          "internalType": "address",
          "name": "spender",
          "type": "address"
        },
        {
          "internalType": "uint256",
          "name": "amount",
          "type": "uint256"
        }
      ],
      "name": "approve",
      "outputs": [
        {
          "internalType": "bool",
          "name": "",
          "type": "bool"
        }
      ],
      "stateMutability": "nonpayable",
      "type": "function"
    },
    {
      "inputs": [
        {
          "internalType": "address",
          "name": "sender",
          "type": "address"
        },
        {
          "internalType": "address",
          "name": "recipient",
          "type": "address"
        },
        {
          "internalType": "uint256",
          "name": "amount",
          "type": "uint256"
        }
      ],
      "name": "transferFrom",
      "outputs": [
        {
          "internalType": "bool",
          "name": "",
          "type": "bool"
        }
      ],
      "stateMutability": "nonpayable",
      "type": "function"
    },
    {
      "inputs": [
        {
          "internalType": "address",
          "name": "spender",
          "type": "address"
        },
        {
          "internalType": "uint256",
          "name": "addedValue",
          "type": "uint256"
        }
      ],
      "name": "increaseAllowance",
      "outputs": [
        {
          "internalType": "bool",
          "name": "",
          "type": "bool"
        }
      ],
      "stateMutability": "nonpayable",
      "type": "function"
    },
    {
      "inputs": [
        {
          "internalType": "address",
          "name": "spender",
          "type": "address"
        },
        {
          "internalType": "uint256",
          "name": "subtractedValue",
          "type": "uint256"
        }
      ],
      "name": "decreaseAllowance",
      "outputs": [
        {
          "internalType": "bool",
          "name": "",
          "type": "bool"
        }
      ],
      "stateMutability": "nonpayable",
      "type": "function"
    },
    {
      "inputs": [
        {
          "internalType": "uint256",
          "name": "amount",
          "type": "uint256"
        }
      ],
      "name": "mint",
      "outputs": [
        {
          "internalType": "bool",
          "name": "",
          "type": "bool"
        }
      ],
      "stateMutability": "nonpayable",
      "type": "function"
    },
    {
      "inputs": [
        {
          "internalType": "uint256",
          "name": "amount",
          "type": "uint256"
        }
      ],
      "name": "burn",
      "outputs": [
        {
          "internalType": "bool",
          "name": "",
          "type": "bool"
        }
      ],
      "stateMutability": "nonpayable",
      "type": "function"
    },
    {
      "inputs": [
        {
          "internalType": "address",
          "name": "account",
          "type": "address"
        },
        {
          "internalType": "uint256",
          "name": "amount",
          "type": "uint256"
        }
      ],
      "name": "burnFrom",
      "outputs": [
        {
          "internalType": "bool",
          "name": "",
          "type": "bool"
        }
      ],
      "stateMutability": "nonpayable",
      "type": "function"
    }
  ],
  "bytecode": "0x6101206040523480156200001257600080fd5b5060405162003ad538038062003ad583398181016040528101906200003891906200096a565b60006200004a6200089b60201b60201c565b9050806000806101000a81548173ffffffffffffffffffffffffffffffffffffffff021916908373ffffffffffffffffffffffffffffffffffffffff1602179055508073ffffffffffffffffffffffffffffffffffffffff16600073ffffffffffffffffffffffffffffffffffffffff167f8be0079c531659141344cd1fd0a4f28419497f9722a3daafe3b4186f6b6457e060405160405180910390a3506040518060400160405280600381526020017f41545200000000000000000000000000000000000000000000000000000000008152506019908051906020019062000135929190620008a3565b506040518060400160405280600381526020017f41545200000000000000000000000000000000000000000000000000000000008152506018908051906020019062000183929190620008a3565b506009601760006101000a81548160ff021916908360ff1602179055506000600160003373ffffffffffffffffffffffffffffffffffffffff1673ffffffffffffffffffffffffffffffffffffffff1681526020019081526020016000208190555063620adef0601a819055506362589960601b819055506362802660601c819055506362a904e0601d819055506362f97060601e81905550601760009054906101000a900460ff1660ff16600a6200023d919062000a72565b628197c86200024d919062000baf565b600981905550601760009054906101000a900460ff1660ff16600a62000274919062000a72565b6265789062000284919062000baf565b600a81905550601760009054906101000a900460ff1660ff16600a620002ab919062000a72565b6264bf04620002bb919062000baf565b600b81905550601760009054906101000a900460ff1660ff16600a620002e2919062000a72565b6216dd84620002f2919062000baf565b600c81905550601760009054906101000a900460ff1660ff16600a62000319919062000a72565b625265c062000329919062000baf565b600d81905550601760009054906101000a900460ff1660ff16600a62000350919062000a72565b6301443fd062000361919062000baf565b600e81905550601760009054906101000a900460ff1660ff16600a62000388919062000a72565b630393870062000399919062000baf565b600f81905550601760009054906101000a900460ff1660ff16600a620003c0919062000a72565b627ac5b0620003d0919062000baf565b601081905550601760009054906101000a900460ff1660ff16600a620003f7919062000a72565b6260216062000407919062000baf565b601181905550601760009054906101000a900460ff1660ff16600a6200042e919062000a72565b625f71986200043e919062000baf565b601281905550601760009054906101000a900460ff1660ff16600a62000465919062000a72565b621e7cb062000475919062000baf565b601381905550601760009054906101000a900460ff1660ff16600a6200049c919062000a72565b626ddd00620004ac919062000baf565b601481905550601760009054906101000a900460ff1660ff16600a620004d3919062000a72565b63015752a0620004e4919062000baf565b601581905550601760009054906101000a900460ff1660ff16600a6200050b919062000a72565b63039387006200051c919062000baf565b601681905550601760009054906101000a900460ff1660ff16600a62000543919062000a72565b631754947862000554919062000baf565b60a08181525050601760009054906101000a900460ff1660ff16600a6200057c919062000a72565b6304ef27306200058d919062000baf565b60c08181525050601760009054906101000a900460ff1660ff16600a620005b5919062000a72565b6307997ee0620005c6919062000baf565b60e08181525050601760009054906101000a900460ff1660ff16600a620005ee919062000a72565b630e4e1c00620005ff919062000baf565b6101008181525050601760009054906101000a900460ff1660ff16600a62000628919062000a72565b636b49d20062000639919062000baf565b608081815250506000600860006101000a81548160ff0219169083151502179055506001600860016101000a81548160ff0219169083151502179055506001600860026101000a81548160ff0219169083151502179055506001600860036101000a81548160ff0219169083151502179055506001600860046101000a81548160ff02191690831515021790555086601f60006101000a81548173ffffffffffffffffffffffffffffffffffffffff021916908373ffffffffffffffffffffffffffffffffffffffff16021790555085602060006101000a81548173ffffffffffffffffffffffffffffffffffffffff021916908373ffffffffffffffffffffffffffffffffffffffff16021790555084602160006101000a81548173ffffffffffffffffffffffffffffffffffffffff021916908373ffffffffffffffffffffffffffffffffffffffff16021790555082602260006101000a81548173ffffffffffffffffffffffffffffffffffffffff021916908373ffffffffffffffffffffffffffffffffffffffff16021790555083602360006101000a81548173ffffffffffffffffffffffffffffffffffffffff021916908373ffffffffffffffffffffffffffffffffffffffff16021790555081602460006101000a81548173ffffffffffffffffffffffffffffffffffffffff021916908373ffffffffffffffffffffffffffffffffffffffff16021790555080602560006101000a81548173ffffffffffffffffffffffffffffffffffffffff021916908373ffffffffffffffffffffffffffffffffffffffff1602179055505050505050505062000d09565b600033905090565b828054620008b19062000c4e565b90600052602060002090601f016020900481019282620008d5576000855562000921565b82601f10620008f057805160ff191683800117855562000921565b8280016001018555821562000921579182015b828111156200092057825182559160200191906001019062000903565b5b50905062000930919062000934565b5090565b5b808211156200094f57600081600090555060010162000935565b5090565b600081519050620009648162000cef565b92915050565b600080600080600080600060e0888a0312156200098657600080fd5b6000620009968a828b0162000953565b9750506020620009a98a828b0162000953565b9650506040620009bc8a828b0162000953565b9550506060620009cf8a828b0162000953565b9450506080620009e28a828b0162000953565b93505060a0620009f58a828b0162000953565b92505060c062000a088a828b0162000953565b91505092959891949750929550565b6000808291508390505b600185111562000a695780860481111562000a415762000a4062000c84565b5b600185161562000a515780820291505b808102905062000a618562000ce2565b945062000a21565b94509492505050565b600062000a7f8262000c44565b915062000a8c8362000c44565b925062000abb7fffffffffffffffffffffffffffffffffffffffffffffffffffffffffffffffff848462000ac3565b905092915050565b60008262000ad5576001905062000ba8565b8162000ae5576000905062000ba8565b816001811462000afe576002811462000b095762000b3f565b600191505062000ba8565b60ff84111562000b1e5762000b1d62000c84565b5b8360020a91508482111562000b385762000b3762000c84565b5b5062000ba8565b5060208310610133831016604e8410600b841016171562000b795782820a90508381111562000b735762000b7262000c84565b5b62000ba8565b62000b88848484600162000a17565b9250905081840481111562000ba25762000ba162000c84565b5b81810290505b9392505050565b600062000bbc8262000c44565b915062000bc98362000c44565b9250817fffffffffffffffffffffffffffffffffffffffffffffffffffffffffffffffff048311821515161562000c055762000c0462000c84565b5b828202905092915050565b600062000c1d8262000c24565b9050919050565b600073ffffffffffffffffffffffffffffffffffffffff82169050919050565b6000819050919050565b6000600282049050600182168062000c6757607f821691505b6020821081141562000c7e5762000c7d62000cb3565b5b50919050565b7f4e487b7100000000000000000000000000000000000000000000000000000000600052601160045260246000fd5b7f4e487b7100000000000000000000000000000000000000000000000000000000600052602260045260246000fd5b60008160011c9050919050565b62000cfa8162000c10565b811462000d0657600080fd5b50565b60805160a05160c05160e05161010051612d8762000d4e60003960006113a0015260006111da01526000610faa01526000610d10015260006115d80152612d876000f3fe608060405234801561001057600080fd5b506004361061014d5760003560e01c806379cc6790116100c3578063a457c2d71161007c578063a457c2d7146103ba578063a9059cbb146103ea578063d5abeb011461041a578063dd62ed3e14610438578063f2fde38b14610468578063fa02e715146104845761014d565b806379cc6790146102e2578063893d20e8146103125780638d1120b1146103305780638da5cb5b1461034e57806395d89b411461036c578063a0712d681461038a5761014d565b8063313ce56711610115578063313ce5671461020c578063395093511461022a57806342966c681461025a57806370a082311461028a578063715018a6146102ba57806378e97925146102c45761014d565b806306fdde0314610152578063095ea7b31461017057806318160ddd146101a057806323b872dd146101be5780632514d1a5146101ee575b600080fd5b61015a6104a2565b6040516101679190612883565b60405180910390f35b61018a600480360381019061018591906122c3565b610534565b6040516101979190612868565b60405180910390f35b6101a8610552565b6040516101b59190612a65565b60405180910390f35b6101d860048036038101906101d39190612274565b61055c565b6040516101e59190612868565b60405180910390f35b6101f6610635565b604051610203919061284d565b60405180910390f35b61021461065f565b6040516102219190612a80565b60405180910390f35b610244600480360381019061023f91906122c3565b610676565b6040516102519190612868565b60405180910390f35b610274600480360381019061026f91906122ff565b610729565b6040516102819190612868565b60405180910390f35b6102a4600480360381019061029f919061220f565b6107da565b6040516102b19190612a65565b60405180910390f35b6102c2610823565b005b6102cc610976565b6040516102d99190612a65565b60405180910390f35b6102fc60048036038101906102f791906122c3565b610980565b6040516103099190612868565b60405180910390f35b61031a610996565b604051610327919061284d565b60405180910390f35b6103386109a5565b604051610345919061284d565b60405180910390f35b6103566109cf565b604051610363919061284d565b60405180910390f35b6103746109f8565b6040516103819190612883565b60405180910390f35b6103a4600480360381019061039f91906122ff565b610a8a565b6040516103b19190612868565b60405180910390f35b6103d460048036038101906103cf91906122c3565b6114e9565b6040516103e19190612868565b60405180910390f35b61040460048036038101906103ff91906122c3565b6115b6565b6040516104119190612868565b60405180910390f35b6104226115d4565b60405161042f9190612a65565b60405180910390f35b610452600480360381019061044d9190612238565b6115fc565b60405161045f9190612a65565b60405180910390f35b610482600480360381019061047d919061220f565b611683565b005b61048c611724565b604051610499919061284d565b60405180910390f35b6060601980546104b190612bc9565b80601f01602080910402602001604051908101604052809291908181526020018280546104dd90612bc9565b801561052a5780601f106104ff5761010080835404028352916020019161052a565b820191906000526020600020905b81548152906001019060200180831161050d57829003601f168201915b5050505050905090565b600061054861054161174e565b8484611756565b6001905092915050565b6000600354905090565b6000610569848484611921565b61062a8461057561174e565b61062585604051806060016040528060288152602001612c9960289139600260008b73ffffffffffffffffffffffffffffffffffffffff1673ffffffffffffffffffffffffffffffffffffffff16815260200190815260200160002060006105db61174e565b73ffffffffffffffffffffffffffffffffffffffff1673ffffffffffffffffffffffffffffffffffffffff16815260200190815260200160002054611baf9092919063ffffffff16565b611756565b600190509392505050565b6000602060009054906101000a900473ffffffffffffffffffffffffffffffffffffffff16905090565b6000601760009054906101000a900460ff16905090565b600061071f61068361174e565b8461071a856002600061069461174e565b73ffffffffffffffffffffffffffffffffffffffff1673ffffffffffffffffffffffffffffffffffffffff16815260200190815260200160002060008973ffffffffffffffffffffffffffffffffffffffff1673ffffffffffffffffffffffffffffffffffffffff16815260200190815260200160002054611c1390919063ffffffff16565b611756565b6001905092915050565b600061073361174e565b73ffffffffffffffffffffffffffffffffffffffff1660008054906101000a900473ffffffffffffffffffffffffffffffffffffffff1673ffffffffffffffffffffffffffffffffffffffff16146107c0576040517f08c379a00000000000000000000000000000000000000000000000000000000081526004016107b7906129a5565b60405180910390fd5b6107d16107cb61174e565b83611c71565b60019050919050565b6000600160008373ffffffffffffffffffffffffffffffffffffffff1673ffffffffffffffffffffffffffffffffffffffff168152602001908152602001600020549050919050565b61082b61174e565b73ffffffffffffffffffffffffffffffffffffffff1660008054906101000a900473ffffffffffffffffffffffffffffffffffffffff1673ffffffffffffffffffffffffffffffffffffffff16146108b8576040517f08c379a00000000000000000000000000000000000000000000000000000000081526004016108af906129a5565b60405180910390fd5b600073ffffffffffffffffffffffffffffffffffffffff1660008054906101000a900473ffffffffffffffffffffffffffffffffffffffff1673ffffffffffffffffffffffffffffffffffffffff167f8be0079c531659141344cd1fd0a4f28419497f9722a3daafe3b4186f6b6457e060405160405180910390a360008060006101000a81548173ffffffffffffffffffffffffffffffffffffffff021916908373ffffffffffffffffffffffffffffffffffffffff160217905550565b6000601a54905090565b600061098c8383611e15565b6001905092915050565b60006109a06109cf565b905090565b6000601f60009054906101000a900473ffffffffffffffffffffffffffffffffffffffff16905090565b60008060009054906101000a900473ffffffffffffffffffffffffffffffffffffffff16905090565b606060188054610a0790612bc9565b80601f0160208091040260200160405190810160405280929190818152602001828054610a3390612bc9565b8015610a805780601f10610a5557610100808354040283529160200191610a80565b820191906000526020600020905b815481529060010190602001808311610a6357829003601f168201915b5050505050905090565b6000610a9461174e565b73ffffffffffffffffffffffffffffffffffffffff1660008054906101000a900473ffffffffffffffffffffffffffffffffffffffff1673ffffffffffffffffffffffffffffffffffffffff1614610b21576040517f08c379a0000000000000000000000000000000000000000000000000000000008152600401610b18906129a5565b60405180910390fd5b601a5442118015610b3f5750600860009054906101000a900460ff16155b15610c7457610b72601f60009054906101000a900473ffffffffffffffffffffffffffffffffffffffff16601054611ee4565b610ba0602060009054906101000a900473ffffffffffffffffffffffffffffffffffffffff16601154611ee4565b610bce602160009054906101000a900473ffffffffffffffffffffffffffffffffffffffff16601254611ee4565b610bfc602360009054906101000a900473ffffffffffffffffffffffffffffffffffffffff16601354611ee4565b610c2a602260009054906101000a900473ffffffffffffffffffffffffffffffffffffffff16601454611ee4565b610c58602460009054906101000a900473ffffffffffffffffffffffffffffffffffffffff16601554611ee4565b6001600860006101000a81548160ff0219169083151502179055505b600860009054906101000a900460ff16156114e0576006821415610f2357610caa62278d00601e54611c1390919063ffffffff16565b421115610ceb57610cc962278d00601e54611c1390919063ffffffff16565b601e819055506001600860016101000a81548160ff0219169083151502179055505b601e544210158015610d095750600860019054906101000a900460ff165b15610f22577f0000000000000000000000000000000000000000000000000000000000000000610d6e600b54610d60600a54610d52600954600454611c1390919063ffffffff16565b611c1390919063ffffffff16565b611c1390919063ffffffff16565b1115610daf576040517f08c379a0000000000000000000000000000000000000000000000000000000008152600401610da690612925565b60405180910390fd5b610db76115d4565b610df6600b54610de8600a54610dda600954600354611c1390919063ffffffff16565b611c1390919063ffffffff16565b611c1390919063ffffffff16565b1115610e37576040517f08c379a0000000000000000000000000000000000000000000000000000000008152600401610e2e90612a25565b60405180910390fd5b610e65601f60009054906101000a900473ffffffffffffffffffffffffffffffffffffffff16600954611ee4565b610e93602060009054906101000a900473ffffffffffffffffffffffffffffffffffffffff16600a54611ee4565b610ec1602160009054906101000a900473ffffffffffffffffffffffffffffffffffffffff16600b54611ee4565b610f00600b54610ef2600a54610ee4600954600454611c1390919063ffffffff16565b611c1390919063ffffffff16565b611c1390919063ffffffff16565b6004819055506000600860016101000a81548160ff0219169083151502179055505b5b600482141561115357610f4462278d00601d54611c1390919063ffffffff16565b421115610f8557610f6362278d00601d54611c1390919063ffffffff16565b601d819055506001600860026101000a81548160ff0219169083151502179055505b601d544210158015610fa35750600860029054906101000a900460ff165b15611152577f0000000000000000000000000000000000000000000000000000000000000000610ff4600d54610fe6600c54600554611c1390919063ffffffff16565b611c1390919063ffffffff16565b1115611035576040517f08c379a000000000000000000000000000000000000000000000000000000000815260040161102c90612945565b60405180910390fd5b61103d6115d4565b611068600d5461105a600c54600354611c1390919063ffffffff16565b611c1390919063ffffffff16565b11156110a9576040517f08c379a00000000000000000000000000000000000000000000000000000000081526004016110a090612a25565b60405180910390fd5b6110d7602360009054906101000a900473ffffffffffffffffffffffffffffffffffffffff16600c54611ee4565b611105602260009054906101000a900473ffffffffffffffffffffffffffffffffffffffff16600d54611ee4565b611130600d54611122600c54600554611c1390919063ffffffff16565b611c1390919063ffffffff16565b6005819055506000600860026101000a81548160ff0219169083151502179055505b5b60038214156113195761117462278d00601c54611c1390919063ffffffff16565b4211156111b55761119362278d00601c54611c1390919063ffffffff16565b601c819055506001600860036101000a81548160ff0219169083151502179055505b601c5442101580156111d35750600860039054906101000a900460ff165b15611318577f0000000000000000000000000000000000000000000000000000000000000000611210600e54600654611c1390919063ffffffff16565b1115611251576040517f08c379a0000000000000000000000000000000000000000000000000000000008152600401611248906129c5565b60405180910390fd5b6112596115d4565b611270600e54600354611c1390919063ffffffff16565b11156112b1576040517f08c379a00000000000000000000000000000000000000000000000000000000081526004016112a890612a25565b60405180910390fd5b6112df602460009054906101000a900473ffffffffffffffffffffffffffffffffffffffff16600e54611ee4565b6112f6600e54600654611c1390919063ffffffff16565b6006819055506000600860036101000a81548160ff0219169083151502179055505b5b60028214156114df5761133a62278d00601b54611c1390919063ffffffff16565b42111561137b5761135962278d00601b54611c1390919063ffffffff16565b601b819055506001600860046101000a81548160ff0219169083151502179055505b601b5442101580156113995750600860049054906101000a900460ff165b156114de577f00000000000000000000000000000000000000000000000000000000000000006113d6600f54600754611c1390919063ffffffff16565b1115611417576040517f08c379a000000000000000000000000000000000000000000000000000000000815260040161140e90612965565b60405180910390fd5b61141f6115d4565b611436600f54600354611c1390919063ffffffff16565b1115611477576040517f08c379a000000000000000000000000000000000000000000000000000000000815260040161146e90612a25565b60405180910390fd5b6114a5602560009054906101000a900473ffffffffffffffffffffffffffffffffffffffff16600f54611ee4565b6114bc600f54600754611c1390919063ffffffff16565b6007819055506000600860046101000a81548160ff0219169083151502179055505b5b5b60019050919050565b60006115ac6114f661174e565b846115a785604051806060016040528060258152602001612ce7602591396002600061152061174e565b73ffffffffffffffffffffffffffffffffffffffff1673ffffffffffffffffffffffffffffffffffffffff16815260200190815260200160002060008a73ffffffffffffffffffffffffffffffffffffffff1673ffffffffffffffffffffffffffffffffffffffff16815260200190815260200160002054611baf9092919063ffffffff16565b611756565b6001905092915050565b60006115ca6115c361174e565b8484611921565b6001905092915050565b60007f0000000000000000000000000000000000000000000000000000000000000000905090565b6000600260008473ffffffffffffffffffffffffffffffffffffffff1673ffffffffffffffffffffffffffffffffffffffff16815260200190815260200160002060008373ffffffffffffffffffffffffffffffffffffffff1673ffffffffffffffffffffffffffffffffffffffff16815260200190815260200160002054905092915050565b61168b61174e565b73ffffffffffffffffffffffffffffffffffffffff1660008054906101000a900473ffffffffffffffffffffffffffffffffffffffff1673ffffffffffffffffffffffffffffffffffffffff1614611718576040517f08c379a000000000000000000000000000000000000000000000000000000000815260040161170f906129a5565b60405180910390fd5b6117218161206e565b50565b6000602160009054906101000a900473ffffffffffffffffffffffffffffffffffffffff16905090565b600033905090565b600073ffffffffffffffffffffffffffffffffffffffff168373ffffffffffffffffffffffffffffffffffffffff1614156117c6576040517f08c379a00000000000000000000000000000000000000000000000000000000081526004016117bd906128c5565b60405180910390fd5b600073ffffffffffffffffffffffffffffffffffffffff168273ffffffffffffffffffffffffffffffffffffffff161415611836576040517f08c379a000000000000000000000000000000000000000000000000000000000815260040161182d90612a45565b60405180910390fd5b80600260008573ffffffffffffffffffffffffffffffffffffffff1673ffffffffffffffffffffffffffffffffffffffff16815260200190815260200160002060008473ffffffffffffffffffffffffffffffffffffffff1673ffffffffffffffffffffffffffffffffffffffff168152602001908152602001600020819055508173ffffffffffffffffffffffffffffffffffffffff168373ffffffffffffffffffffffffffffffffffffffff167f8c5be1e5ebec7d5bd14f71427d1e84f3dd0314c0f7b2291e5b200ac8c7c3b925836040516119149190612a65565b60405180910390a3505050565b600073ffffffffffffffffffffffffffffffffffffffff168373ffffffffffffffffffffffffffffffffffffffff161415611991576040517f08c379a0000000000000000000000000000000000000000000000000000000008152600401611988906128a5565b60405180910390fd5b600073ffffffffffffffffffffffffffffffffffffffff168273ffffffffffffffffffffffffffffffffffffffff161415611a01576040517f08c379a00000000000000000000000000000000000000000000000000000000081526004016119f8906129e5565b60405180910390fd5b611a6d81604051806060016040528060268152602001612cc160269139600160008773ffffffffffffffffffffffffffffffffffffffff1673ffffffffffffffffffffffffffffffffffffffff16815260200190815260200160002054611baf9092919063ffffffff16565b600160008573ffffffffffffffffffffffffffffffffffffffff1673ffffffffffffffffffffffffffffffffffffffff16815260200190815260200160002081905550611b0281600160008573ffffffffffffffffffffffffffffffffffffffff1673ffffffffffffffffffffffffffffffffffffffff16815260200190815260200160002054611c1390919063ffffffff16565b600160008473ffffffffffffffffffffffffffffffffffffffff1673ffffffffffffffffffffffffffffffffffffffff168152602001908152602001600020819055508173ffffffffffffffffffffffffffffffffffffffff168373ffffffffffffffffffffffffffffffffffffffff167fddf252ad1be2c89b69c2b068fc378daa952ba7f163c4a11628f55a4df523b3ef83604051611ba29190612a65565b60405180910390a3505050565b6000838311158290611bf7576040517f08c379a0000000000000000000000000000000000000000000000000000000008152600401611bee9190612883565b60405180910390fd5b5060008385611c069190612b0d565b9050809150509392505050565b6000808284611c229190612ab7565b905083811015611c67576040517f08c379a0000000000000000000000000000000000000000000000000000000008152600401611c5e90612905565b60405180910390fd5b8091505092915050565b600073ffffffffffffffffffffffffffffffffffffffff168273ffffffffffffffffffffffffffffffffffffffff161415611ce1576040517f08c379a0000000000000000000000000000000000000000000000000000000008152600401611cd890612a05565b60405180910390fd5b611d4d81604051806060016040528060228152602001612d0c60229139600160008673ffffffffffffffffffffffffffffffffffffffff1673ffffffffffffffffffffffffffffffffffffffff16815260200190815260200160002054611baf9092919063ffffffff16565b600160008473ffffffffffffffffffffffffffffffffffffffff1673ffffffffffffffffffffffffffffffffffffffff16815260200190815260200160002081905550611da58160035461219b90919063ffffffff16565b600381905550600073ffffffffffffffffffffffffffffffffffffffff168273ffffffffffffffffffffffffffffffffffffffff167fddf252ad1be2c89b69c2b068fc378daa952ba7f163c4a11628f55a4df523b3ef83604051611e099190612a65565b60405180910390a35050565b611ed682611e2161174e565b611ed184604051806060016040528060248152602001612d2e60249139600260008973ffffffffffffffffffffffffffffffffffffffff1673ffffffffffffffffffffffffffffffffffffffff1681526020019081526020016000206000611e8761174e565b73ffffffffffffffffffffffffffffffffffffffff1673ffffffffffffffffffffffffffffffffffffffff16815260200190815260200160002054611baf9092919063ffffffff16565b611756565b611ee08282611c71565b5050565b600073ffffffffffffffffffffffffffffffffffffffff168273ffffffffffffffffffffffffffffffffffffffff161415611f54576040517f08c379a0000000000000000000000000000000000000000000000000000000008152600401611f4b90612985565b60405180910390fd5b611f6981600354611c1390919063ffffffff16565b600381905550611fc181600160008573ffffffffffffffffffffffffffffffffffffffff1673ffffffffffffffffffffffffffffffffffffffff16815260200190815260200160002054611c1390919063ffffffff16565b600160008473ffffffffffffffffffffffffffffffffffffffff1673ffffffffffffffffffffffffffffffffffffffff168152602001908152602001600020819055508173ffffffffffffffffffffffffffffffffffffffff16600073ffffffffffffffffffffffffffffffffffffffff167fddf252ad1be2c89b69c2b068fc378daa952ba7f163c4a11628f55a4df523b3ef836040516120629190612a65565b60405180910390a35050565b600073ffffffffffffffffffffffffffffffffffffffff168173ffffffffffffffffffffffffffffffffffffffff1614156120de576040517f08c379a00000000000000000000000000000000000000000000000000000000081526004016120d5906128e5565b60405180910390fd5b8073ffffffffffffffffffffffffffffffffffffffff1660008054906101000a900473ffffffffffffffffffffffffffffffffffffffff1673ffffffffffffffffffffffffffffffffffffffff167f8be0079c531659141344cd1fd0a4f28419497f9722a3daafe3b4186f6b6457e060405160405180910390a3806000806101000a81548173ffffffffffffffffffffffffffffffffffffffff021916908373ffffffffffffffffffffffffffffffffffffffff16021790555050565b60006121dd83836040518060400160405280601e81526020017f536166654d6174683a207375627472616374696f6e206f766572666c6f770000815250611baf565b905092915050565b6000813590506121f481612c6a565b92915050565b60008135905061220981612c81565b92915050565b60006020828403121561222157600080fd5b600061222f848285016121e5565b91505092915050565b6000806040838503121561224b57600080fd5b6000612259858286016121e5565b925050602061226a858286016121e5565b9150509250929050565b60008060006060848603121561228957600080fd5b6000612297868287016121e5565b93505060206122a8868287016121e5565b92505060406122b9868287016121fa565b9150509250925092565b600080604083850312156122d657600080fd5b60006122e4858286016121e5565b92505060206122f5858286016121fa565b9150509250929050565b60006020828403121561231157600080fd5b600061231f848285016121fa565b91505092915050565b61233181612b41565b82525050565b61234081612b53565b82525050565b600061235182612a9b565b61235b8185612aa6565b935061236b818560208601612b96565b61237481612c59565b840191505092915050565b600061238c602583612aa6565b91507f42455032303a207472616e736665722066726f6d20746865207a65726f20616460008301527f64726573730000000000000000000000000000000000000000000000000000006020830152604082019050919050565b60006123f2602483612aa6565b91507f42455032303a20617070726f76652066726f6d20746865207a65726f2061646460008301527f72657373000000000000000000000000000000000000000000000000000000006020830152604082019050919050565b6000612458602683612aa6565b91507f4f776e61626c653a206e6577206f776e657220697320746865207a65726f206160008301527f64647265737300000000000000000000000000000000000000000000000000006020830152604082019050919050565b60006124be601b83612aa6565b91507f536166654d6174683a206164646974696f6e206f766572666c6f7700000000006000830152602082019050919050565b60006124fe602c83612aa6565b91507f42455032303a204173736f63697465732c205465616d20616e6420536565642060008301527f63617020657863656564656400000000000000000000000000000000000000006020830152604082019050919050565b6000612564602e83612aa6565b91507f42455032303a204d61726b6574696e6720616e6420507269766174652053616c60008301527f65206361702065786365656465640000000000000000000000000000000000006020830152604082019050919050565b60006125ca601f83612aa6565b91507f42455032303a2049434f20526f756e64203220636170206578636565646564006000830152602082019050919050565b600061260a601f83612aa6565b91507f42455032303a206d696e7420746f20746865207a65726f2061646472657373006000830152602082019050919050565b600061264a602083612aa6565b91507f4f776e61626c653a2063616c6c6572206973206e6f7420746865206f776e65726000830152602082019050919050565b600061268a601f83612aa6565b91507f42455032303a2049434f20526f756e64203120636170206578636565646564006000830152602082019050919050565b60006126ca602383612aa6565b91507f42455032303a207472616e7366657220746f20746865207a65726f206164647260008301527f65737300000000000000000000000000000000000000000000000000000000006020830152604082019050919050565b6000612730602183612aa6565b91507f42455032303a206275726e2066726f6d20746865207a65726f2061646472657360008301527f73000000000000000000000000000000000000000000000000000000000000006020830152604082019050919050565b6000612796601383612aa6565b91507f42455032303a20636170206578636565646564000000000000000000000000006000830152602082019050919050565b60006127d6602283612aa6565b91507f42455032303a20617070726f766520746f20746865207a65726f20616464726560008301527f73730000000000000000000000000000000000000000000000000000000000006020830152604082019050919050565b61283881612b7f565b82525050565b61284781612b89565b82525050565b60006020820190506128626000830184612328565b92915050565b600060208201905061287d6000830184612337565b92915050565b6000602082019050818103600083015261289d8184612346565b905092915050565b600060208201905081810360008301526128be8161237f565b9050919050565b600060208201905081810360008301526128de816123e5565b9050919050565b600060208201905081810360008301526128fe8161244b565b9050919050565b6000602082019050818103600083015261291e816124b1565b9050919050565b6000602082019050818103600083015261293e816124f1565b9050919050565b6000602082019050818103600083015261295e81612557565b9050919050565b6000602082019050818103600083015261297e816125bd565b9050919050565b6000602082019050818103600083015261299e816125fd565b9050919050565b600060208201905081810360008301526129be8161263d565b9050919050565b600060208201905081810360008301526129de8161267d565b9050919050565b600060208201905081810360008301526129fe816126bd565b9050919050565b60006020820190508181036000830152612a1e81612723565b9050919050565b60006020820190508181036000830152612a3e81612789565b9050919050565b60006020820190508181036000830152612a5e816127c9565b9050919050565b6000602082019050612a7a600083018461282f565b92915050565b6000602082019050612a95600083018461283e565b92915050565b600081519050919050565b600082825260208201905092915050565b6000612ac282612b7f565b9150612acd83612b7f565b9250827fffffffffffffffffffffffffffffffffffffffffffffffffffffffffffffffff03821115612b0257612b01612bfb565b5b828201905092915050565b6000612b1882612b7f565b9150612b2383612b7f565b925082821015612b3657612b35612bfb565b5b828203905092915050565b6000612b4c82612b5f565b9050919050565b60008115159050919050565b600073ffffffffffffffffffffffffffffffffffffffff82169050919050565b6000819050919050565b600060ff82169050919050565b60005b83811015612bb4578082015181840152602081019050612b99565b83811115612bc3576000848401525b50505050565b60006002820490506001821680612be157607f821691505b60208210811415612bf557612bf4612c2a565b5b50919050565b7f4e487b7100000000000000000000000000000000000000000000000000000000600052601160045260246000fd5b7f4e487b7100000000000000000000000000000000000000000000000000000000600052602260045260246000fd5b6000601f19601f8301169050919050565b612c7381612b41565b8114612c7e57600080fd5b50565b612c8a81612b7f565b8114612c9557600080fd5b5056fe42455032303a207472616e7366657220616d6f756e74206578636565647320616c6c6f77616e636542455032303a207472616e7366657220616d6f756e7420657863656564732062616c616e636542455032303a2064656372656173656420616c6c6f77616e63652062656c6f77207a65726f42455032303a206275726e20616d6f756e7420657863656564732062616c616e636542455032303a206275726e20616d6f756e74206578636565647320616c6c6f77616e6365a2646970667358221220173b6ac6b4ec0fb63fa97eef352aa8ba0be185dea3efe6b35e9b30cfa2228deb64736f6c63430008000033",
  "immutableReferences": {
    "60": [
      {
        "length": 32,
        "start": 5592
      }
    ],
    "62": [
      {
        "length": 32,
        "start": 3344
      }
    ],
    "64": [
      {
        "length": 32,
        "start": 4010
      }
    ],
    "66": [
      {
        "length": 32,
        "start": 4570
      }
    ],
    "68": [
      {
        "length": 32,
        "start": 5024
      }
    ]
  },
  "source": "// SPDX-License-Identifier: MIT\n\npragma solidity ^0.8.0;\n\nimport  \"./IBEP20.sol\";\nimport  \"./Ownable.sol\";\nimport  \"./SafeMath.sol\";\n\ncontract BEP20 is Context, IBEP20, Ownable {\n  using SafeMath for uint256;\n  uint256 constant thirtyDays = 2592000;\n  uint256 constant cliffSixM       = 6;\n  uint256 constant cliffFourM      = 4;\n  uint256 constant cliffThreeM     = 3;\n  uint256 constant cliffTwoM       = 2;\n\n  mapping (address => uint256) private _balances;\n\n  mapping (address => mapping (address => uint256)) private _allowances;\n\n  uint256 private _totalSupply;\n  uint256 private _totalSupply_6M;\n  uint256 private _totalSupply_4M;\n  uint256 private _totalSupply_3M;\n  uint256 private _totalSupply_2M;\n\n  bool    private _initialMintIsDon;\n  bool    private _authoriseMin_6M;\n  bool    private _authoriseMin_4M;\n  bool    private _authoriseMin_3M;\n  bool    private _authoriseMin_2M;\n\n  uint256 immutable private _maxSupply;\n  uint256 immutable private _MaxSupply_6M;\n  uint256 immutable private _MaxSupply_4M;\n  uint256 immutable private _MaxSupply_3M;\n  uint256 immutable private _MaxSupply_2M;\n\n  uint256 private _associatesMonthlySupply;\n  uint256 private _teamMonthlySupply;\n  uint256 private _seedMonthlySupply;\n  uint256 private _privSaleMonthlySupply;\n  uint256 private _marketingMonthlySupply;\n  uint256 private _icoRound1MonthlySupply;\n  uint256 private _icoRound2MonthlySupply;\n\n  uint256 private _associatesEndOfIcoSupply;\n  uint256 private _teamEndOfIcoSupply;\n  uint256 private _seedEndOfIcoSupply;\n  uint256 private _privSaleEndOfIcoSupply;\n  uint256 private _marketingEndOfIcoSupply;\n  uint256 private _icoRound1EndOfIcoSupply;\n  uint256 private _icoRound2EndOfIcoSupply;\n\n  uint8   private _decimals;\n  string  private _symbol;\n  string  private _name;\n\n  uint256 private _endOfICO;\n  uint256 private _startTime_2M;\n  uint256 private _startTime_3M;\n  uint256 private _startTime_4M;\n  uint256 private _startTime_6M;\n\n  address private _associatesAdd;\n  address private _teamAdd;\n  address private _seedAdd;\n  address private _marketingAdd;\n  address private _privSaleAdd;\n  address private _icoRound1Add;\n  address private _icoRound2Add;\n\n  constructor(address associatesAdd, address teamAdd, address seedAdd,address privSaleAdd, address marketingAdd, address icoRound1Add , address icoRound2Add )  {\n    _name                 = \"ATR\";\n    _symbol               = \"ATR\";\n    _decimals             = 9;\n    _balances[msg.sender] = 0;\n    _endOfICO             = 1644879600; // 15 fev    2022 00:00:00\n    _startTime_2M         = 1649973600; // 15 April  2022 00:00:00\n    _startTime_3M         = 1652565600; // 15 May    2022 00:00:00\n    _startTime_4M         = 1655244000; // 15 June   2022 00:00:00\n    _startTime_6M         = 1660514400; // 15 August 2022 00:00:00\n\n    _associatesMonthlySupply     = 8493000  * (10 ** uint256(_decimals)); //\n    _teamMonthlySupply           = 6650000  * (10 ** uint256(_decimals)); //\n    _seedMonthlySupply           = 6602500  * (10 ** uint256(_decimals)); //\n    _privSaleMonthlySupply       = 1498500  * (10 ** uint256(_decimals)); //\n    _marketingMonthlySupply      = 5400000  * (10 ** uint256(_decimals)); //\n    _icoRound1MonthlySupply      = 21250000 * (10 ** uint256(_decimals)); //\n    _icoRound2MonthlySupply      = 60000000 * (10 ** uint256(_decimals)); //\n\n    _associatesEndOfIcoSupply    = 8046000  * (10 ** uint256(_decimals));\n    _teamEndOfIcoSupply          = 6300000  * (10 ** uint256(_decimals));\n    _seedEndOfIcoSupply          = 6255000  * (10 ** uint256(_decimals));\n    _privSaleEndOfIcoSupply      = 1998000  * (10 ** uint256(_decimals));\n    _marketingEndOfIcoSupply     = 7200000  * (10 ** uint256(_decimals));\n    _icoRound1EndOfIcoSupply     = 22500000 * (10 ** uint256(_decimals));\n    _icoRound2EndOfIcoSupply     = 60000000 * (10 ** uint256(_decimals));\n\n    _MaxSupply_6M         = 391419000   * (10 ** uint256(_decimals));\n    _MaxSupply_4M         = 82782000    * (10 ** uint256(_decimals));\n    _MaxSupply_3M         = 127500000   * (10 ** uint256(_decimals));\n    _MaxSupply_2M         = 240000000   * (10 ** uint256(_decimals));\n\n    _maxSupply            = 1800000000 * (10 ** uint256(_decimals)); // 1,8 MD\n\n    _initialMintIsDon     = false;\n    _authoriseMin_6M      = true;\n    _authoriseMin_4M      = true;\n    _authoriseMin_3M      = true;\n    _authoriseMin_2M      = true;\n\n\n    _associatesAdd        = associatesAdd;\n    _teamAdd              = teamAdd;\n    _seedAdd              = seedAdd;\n    _marketingAdd         = marketingAdd;\n    _privSaleAdd          = privSaleAdd;\n    _icoRound1Add         = icoRound1Add;\n    _icoRound2Add         = icoRound2Add;\n\n  }\n\n  /**\n   * @dev Returns the bep token owner.\n   */\n  function getOwner() public view  override returns (address) {\n    return owner();\n  }\n  /**\n   * @dev Returns the team address.\n   */\n  function getTeamAdd() external view returns (address) {\n    return _teamAdd;\n  }\n\n  /**\n   * @dev Returns the team address.\n   */\n  function getSeedAdd() external view returns (address) {\n    return _seedAdd;\n  }\n\n  /**\n   * @dev Returns the team address.\n   */\n  function getAssociatesAdd() external view returns (address) {\n    return _associatesAdd;\n  }\n\n  /**\n   * @dev Returns the token decimals.\n   */\n  function decimals() public view  override returns (uint8) {\n    return _decimals;\n  }\n\n  /**\n   * @dev Returns the token symbol.\n   */\n  function symbol() public view  override returns (string memory) {\n    return _symbol;\n  }\n\n  /**\n  * @dev Returns the token name.\n  */\n  function name() public view  override returns (string memory) {\n    return _name;\n  }\n\n  /**\n   * @dev See {BEP20-totalSupply}.\n   */\n  function totalSupply() public view  override returns (uint256) {\n    return _totalSupply;\n  }\n\n  /**\n   * @dev See {BEP20-balanceOf}.\n   */\n  function balanceOf(address account) public view  override returns (uint256) {\n    return _balances[account];\n  }\n\n  /**\n   * @dev Returns the cap on the token's total supply.\n   */\n   function maxSupply() public view  returns (uint256) {\n       return _maxSupply;\n   }\n\n  /**\n   * @dev See {BEP20-startTime}.\n   */\n   function startTime() external view returns (uint256) {\n      return _endOfICO;\n   }\n\n  /**\n   * @dev See {BEP20-transfer}.\n   *\n   * Requirements:\n   *\n   * - `recipient` cannot be the zero address.\n   * - the caller must have a balance of at least `amount`.\n   */\n  function transfer(address recipient, uint256 amount) public virtual override returns (bool) {\n    _transfer(_msgSender(), recipient, amount);\n    return true;\n  }\n\n  /**\n   * @dev See {BEP20-allowance}.\n   */\n  function allowance(address owner, address spender) public view  override returns (uint256) {\n    return _allowances[owner][spender];\n  }\n\n  /**\n   * @dev See {BEP20-approve}.\n   *\n   * Requirements:\n   *\n   * - `spender` cannot be the zero address.\n   */\n  function approve(address spender, uint256 amount) public virtual  override returns (bool) {\n    _approve(_msgSender(), spender, amount);\n    return true;\n  }\n\n  /**\n   * @dev See {BEP20-transferFrom}.\n   *\n   * Emits an {Approval} event indicating the updated allowance. This is not\n   * required by the EIP. See the note at the beginning of {BEP20};\n   *\n   * Requirements:\n   * - `sender` and `recipient` cannot be the zero address.\n   * - `sender` must have a balance of at least `amount`.\n   * - the caller must have allowance for `sender`'s tokens of at least\n   * `amount`.\n   */\n  function transferFrom(address sender, address recipient, uint256 amount) public virtual  override returns (bool) {\n    _transfer(sender, recipient, amount);\n    _approve(sender, _msgSender(), _allowances[sender][_msgSender()].sub(amount, \"BEP20: transfer amount exceeds allowance\"));\n    return true;\n  }\n\n  /**\n   * @dev Atomically increases the allowance granted to `spender` by the caller.\n   *\n   * This is an alternative to {approve} that can be used as a mitigation for\n   * problems described in {BEP20-approve}.\n   *\n   * Emits an {Approval} event indicating the updated allowance.\n   *\n   * Requirements:\n   *\n   * - `spender` cannot be the zero address.\n   */\n  function increaseAllowance(address spender, uint256 addedValue) public returns (bool) {\n    _approve(_msgSender(), spender, _allowances[_msgSender()][spender].add(addedValue));\n    return true;\n  }\n\n  /**\n   * @dev Atomically decreases the allowance granted to `spender` by the caller.\n   *\n   * This is an alternative to {approve} that can be used as a mitigation for\n   * problems described in {BEP20-approve}.\n   *\n   * Emits an {Approval} event indicating the updated allowance.\n   *\n   * Requirements:\n   *\n   * - `spender` cannot be the zero address.\n   * - `spender` must have allowance for the caller of at least\n   * `subtractedValue`.\n   */\n  function decreaseAllowance(address spender, uint256 subtractedValue) public returns (bool) {\n    _approve(_msgSender(), spender, _allowances[_msgSender()][spender].sub(subtractedValue, \"BEP20: decreased allowance below zero\"));\n    return true;\n  }\n\n  /**\n   * @dev Creates `amount` tokens and assigns them to `subventionAdd`, increasing\n   *\n   * See {BEP20-_mint}.\n   */\n  function mint(uint256 amount) public onlyOwner returns (bool) {\n    if ( (block.timestamp > _endOfICO)  && !_initialMintIsDon){\n        _mint(_associatesAdd, _associatesEndOfIcoSupply);\n        _mint(_teamAdd, _teamEndOfIcoSupply);\n        _mint(_seedAdd, _seedEndOfIcoSupply);\n        _mint(_privSaleAdd, _privSaleEndOfIcoSupply);\n        _mint(_marketingAdd, _marketingEndOfIcoSupply);\n        _mint(_icoRound1Add, _icoRound1EndOfIcoSupply);\n        _initialMintIsDon = true;\n    }\n      if ( _initialMintIsDon){\n        if ( amount == cliffSixM){\n          if (  block.timestamp > _startTime_6M.add(thirtyDays)){\n             _startTime_6M = _startTime_6M.add(thirtyDays);\n             _authoriseMin_6M = true;\n          }\n          if ((block.timestamp >= _startTime_6M ) && _authoriseMin_6M){\n            require(_totalSupply_6M.add(_associatesMonthlySupply).add(_teamMonthlySupply).add(_seedMonthlySupply) <= _MaxSupply_6M, \"BEP20: Assocites, Team and Seed cap exceeded\");\n            require(_totalSupply.add(_associatesMonthlySupply).add(_teamMonthlySupply).add(_seedMonthlySupply) <= maxSupply(), \"BEP20: cap exceeded\");\n            _mint(_associatesAdd, _associatesMonthlySupply);\n            _mint(_teamAdd, _teamMonthlySupply);\n            _mint(_seedAdd, _seedMonthlySupply);\n            _totalSupply_6M   = _totalSupply_6M.add(_associatesMonthlySupply).add(_teamMonthlySupply).add(_seedMonthlySupply);\n            _authoriseMin_6M = false;\n          }\n        }\n\n        if ( amount == cliffFourM){\n          if (  block.timestamp > _startTime_4M.add(thirtyDays)){\n             _startTime_4M = _startTime_4M.add(thirtyDays);\n             _authoriseMin_4M = true;\n          }\n          if ((block.timestamp >= _startTime_4M ) && _authoriseMin_4M){\n            require(_totalSupply_4M.add(_privSaleMonthlySupply).add(_marketingMonthlySupply) <= _MaxSupply_4M, \"BEP20: Marketing and Private Sale cap exceeded\");\n            require(_totalSupply.add(_privSaleMonthlySupply).add(_marketingMonthlySupply) <= maxSupply(), \"BEP20: cap exceeded\");\n            _mint(_privSaleAdd, _privSaleMonthlySupply);\n            _mint(_marketingAdd, _marketingMonthlySupply);\n            _totalSupply_4M   = _totalSupply_4M.add(_privSaleMonthlySupply).add(_marketingMonthlySupply);\n            _authoriseMin_4M = false;\n          }\n\n        }\n        if ( amount == cliffThreeM){\n          if (  block.timestamp > _startTime_3M.add(thirtyDays)){\n             _startTime_3M = _startTime_3M.add(thirtyDays);\n             _authoriseMin_3M = true;\n          }\n          if ((block.timestamp >= _startTime_3M ) && _authoriseMin_3M){\n            require(_totalSupply_3M.add(_icoRound1MonthlySupply)<= _MaxSupply_3M, \"BEP20: ICO Round 1 cap exceeded\");\n            require(_totalSupply.add(_icoRound1MonthlySupply) <= maxSupply(), \"BEP20: cap exceeded\");\n            _mint(_icoRound1Add, _icoRound1MonthlySupply);\n            _totalSupply_3M   = _totalSupply_3M.add(_icoRound1MonthlySupply);\n            _authoriseMin_3M = false;\n          }\n\n        }\n        if ( amount == cliffTwoM){\n          if (  block.timestamp > _startTime_2M.add(thirtyDays)){\n             _startTime_2M = _startTime_2M.add(thirtyDays);\n             _authoriseMin_2M = true;\n          }\n          if ((block.timestamp >= _startTime_2M ) && _authoriseMin_2M){\n            require(_totalSupply_2M.add(_icoRound2MonthlySupply)<= _MaxSupply_2M, \"BEP20: ICO Round 2 cap exceeded\");\n            require(_totalSupply.add(_icoRound2MonthlySupply) <= maxSupply(), \"BEP20: cap exceeded\");\n            _mint(_icoRound2Add, _icoRound2MonthlySupply);\n            _totalSupply_2M   = _totalSupply_2M.add(_icoRound2MonthlySupply);\n            _authoriseMin_2M = false;\n          }\n\n        }\n\n      }\n\n\n    return true;\n  }\n\n\n  /**\n    * @dev Destroys `amount` tokens from the caller.\n    *\n    * See {ERC20-_burn}.\n    */\n  function burn(uint256 amount) public onlyOwner returns (bool) {\n    _burn(_msgSender(), amount);\n    return true;\n  }\n\n  /**\n     * @dev Destroys `amount` tokens from `account`, deducting from the caller's\n     * allowance.\n     *\n     * See {ERC20-_burn} and {ERC20-allowance}.\n     *\n     * Requirements:\n     *\n     * - the caller must have allowance for ``accounts``'s tokens of at least\n     * `amount`.\n     */\n    function burnFrom(address account, uint256 amount) public returns (bool) {\n        _burnFrom(account, amount);\n        return true;\n    }\n\n  /**\n   * @dev Moves tokens `amount` from `sender` to `recipient`.\n   *\n   * This is internal function is equivalent to {transfer}, and can be used to\n   * e.g. implement automatic token fees, slashing mechanisms, etc.\n   *\n   * Emits a {Transfer} event.\n   *\n   * Requirements:\n   *\n   * - `sender` cannot be the zero address.\n   * - `recipient` cannot be the zero address.\n   * - `sender` must have a balance of at least `amount`.\n   */\n  function _transfer(address sender, address recipient, uint256 amount) internal virtual {\n    require(sender != address(0), \"BEP20: transfer from the zero address\");\n    require(recipient != address(0), \"BEP20: transfer to the zero address\");\n    // condition  chaque mois\n\n    _balances[sender] = _balances[sender].sub(amount, \"BEP20: transfer amount exceeds balance\");\n    _balances[recipient] = _balances[recipient].add(amount);\n    emit Transfer(sender, recipient, amount);\n  }\n\n  /** @dev Creates `amount` tokens and assigns them to `account`, increasing\n   * the total supply.\n   *\n   * Emits a {Transfer} event with `from` set to the zero address.\n   *\n   * Requirements\n   *\n   * - `to` cannot be the zero address.\n   */\n  function _mint(address account, uint256 amount) internal {\n    require(account != address(0), \"BEP20: mint to the zero address\");\n\n    _totalSupply = _totalSupply.add(amount);\n    _balances[account] = _balances[account].add(amount);\n    emit Transfer(address(0), account, amount);\n  }\n\n  /**\n   * @dev Destroys `amount` tokens from `account`, reducing the\n   * total supply.\n   *\n   * Emits a {Transfer} event with `to` set to the zero address.\n   *\n   * Requirements\n   *\n   * - `account` cannot be the zero address.\n   * - `account` must have at least `amount` tokens.\n   */\n  function _burn(address account, uint256 amount) internal {\n    require(account != address(0), \"BEP20: burn from the zero address\");\n\n    _balances[account] = _balances[account].sub(amount, \"BEP20: burn amount exceeds balance\");\n    _totalSupply = _totalSupply.sub(amount);\n    emit Transfer(account, address(0), amount);\n  }\n\n  /**\n   * @dev Sets `amount` as the allowance of `spender` over the `owner`s tokens.\n   *\n   * This is internal function is equivalent to `approve`, and can be used to\n   * e.g. set automatic allowances for certain subsystems, etc.\n   *\n   * Emits an {Approval} event.\n   *\n   * Requirements:\n   *\n   * - `owner` cannot be the zero address.\n   * - `spender` cannot be the zero address.\n   */\n  function _approve(address owner, address spender, uint256 amount) internal virtual {\n    require(owner != address(0), \"BEP20: approve from the zero address\");\n    require(spender != address(0), \"BEP20: approve to the zero address\");\n\n    _allowances[owner][spender] = amount;\n    emit Approval(owner, spender, amount);\n  }\n\n  /**\n   * @dev Destroys `amount` tokens from `account`.`amount` is then deducted\n   * from the caller's allowance.\n   *\n   * See {_burn} and {_approve}.\n   */\n  function _burnFrom(address account, uint256 amount) internal {\n    _approve(account, _msgSender(), _allowances[account][_msgSender()].sub(amount, \"BEP20: burn amount exceeds allowance\"));\n    _burn(account, amount);\n  }\n\n\n}\n",
  "sourcePath": "/Users/imadlgo/Documents/ICO/Truffl_BEP20/contracts/BEP20.sol",
  "compiler": {
    "name": "solc",
    "version": "0.8.0+commit.c7dfd78e.Emscripten.clang"
  },
  "schemaVersion": "3.3.4",
  "updatedAt": "2021-11-17T10:43:47.581Z",
  "devdoc": {
    "kind": "dev",
    "methods": {
      "allowance(address,address)": {
        "details": "See {BEP20-allowance}."
      },
      "approve(address,uint256)": {
        "details": "See {BEP20-approve}. Requirements: - `spender` cannot be the zero address."
      },
      "balanceOf(address)": {
        "details": "See {BEP20-balanceOf}."
      },
      "burn(uint256)": {
        "details": "Destroys `amount` tokens from the caller. See {ERC20-_burn}."
      },
      "burnFrom(address,uint256)": {
        "details": "Destroys `amount` tokens from `account`, deducting from the caller's allowance. See {ERC20-_burn} and {ERC20-allowance}. Requirements: - the caller must have allowance for ``accounts``'s tokens of at least `amount`."
      },
      "decimals()": {
        "details": "Returns the token decimals."
      },
      "decreaseAllowance(address,uint256)": {
        "details": "Atomically decreases the allowance granted to `spender` by the caller. This is an alternative to {approve} that can be used as a mitigation for problems described in {BEP20-approve}. Emits an {Approval} event indicating the updated allowance. Requirements: - `spender` cannot be the zero address. - `spender` must have allowance for the caller of at least `subtractedValue`."
      },
      "getAssociatesAdd()": {
        "details": "Returns the team address."
      },
      "getOwner()": {
        "details": "Returns the bep token owner."
      },
      "getSeedAdd()": {
        "details": "Returns the team address."
      },
      "getTeamAdd()": {
        "details": "Returns the team address."
      },
      "increaseAllowance(address,uint256)": {
        "details": "Atomically increases the allowance granted to `spender` by the caller. This is an alternative to {approve} that can be used as a mitigation for problems described in {BEP20-approve}. Emits an {Approval} event indicating the updated allowance. Requirements: - `spender` cannot be the zero address."
      },
      "maxSupply()": {
        "details": "Returns the cap on the token's total supply."
      },
      "mint(uint256)": {
        "details": "Creates `amount` tokens and assigns them to `subventionAdd`, increasing See {BEP20-_mint}."
      },
      "name()": {
        "details": "Returns the token name."
      },
      "owner()": {
        "details": "Returns the address of the current owner."
      },
      "renounceOwnership()": {
        "details": "Leaves the contract without owner. It will not be possible to call `onlyOwner` functions anymore. Can only be called by the current owner. NOTE: Renouncing ownership will leave the contract without an owner, thereby removing any functionality that is only available to the owner."
      },
      "startTime()": {
        "details": "See {BEP20-startTime}."
      },
      "symbol()": {
        "details": "Returns the token symbol."
      },
      "totalSupply()": {
        "details": "See {BEP20-totalSupply}."
      },
      "transfer(address,uint256)": {
        "details": "See {BEP20-transfer}. Requirements: - `recipient` cannot be the zero address. - the caller must have a balance of at least `amount`."
      },
      "transferFrom(address,address,uint256)": {
        "details": "See {BEP20-transferFrom}. Emits an {Approval} event indicating the updated allowance. This is not required by the EIP. See the note at the beginning of {BEP20}; Requirements: - `sender` and `recipient` cannot be the zero address. - `sender` must have a balance of at least `amount`. - the caller must have allowance for `sender`'s tokens of at least `amount`."
      },
      "transferOwnership(address)": {
        "details": "Transfers ownership of the contract to a new account (`newOwner`). Can only be called by the current owner."
      }
    },
    "version": 1
  },
  "userdoc": {
    "kind": "user",
    "methods": {},
    "version": 1
  }
}